:020000040800F2
:100000008007002045010008CD2B00088723000849
:10001000AD2900084104000847370008000000002F
:10002000000000000000000000000000192C000883
:10003000D504000800000000ED2B0008192F00086F
:100040005F0100085F0100085F0100085F01000810
:100050005F0100085F0100085F0100085F01000800
:100060005F0100085F0100085F0100085F010008F0
:100070005F0100085F0100085F0100085F010008E0
:100080005F0100085F0100085F0100085F010008D0
:100090005F0100085F0100085F0100085F010008C0
:1000A0005F010008892F00085F0100085F01000858
:1000B0005F0100085F0100085F0100085F010008A0
:1000C0005F0100085F0100085F0100085F01000890
:1000D0005F010008D1350008E1350008F13500085E
:1000E0005F0100085F0100085F0100085F01000870
:1000F0005F0100085F0100085F0100085F01000860
:100100005F0100085F0100085F0100085F0100084F
:100110005F0100085F0100085F0100085F0100083F
:100120005F0100085F0100085F0100085F0100082F
:10013000DFF80CD000F072F900480047313B0008AE
:10014000800700200648804706480047FEE7FEE794
:10015000FEE7FEE7FEE7FEE7FEE7FEE7FEE7FEE777
:10016000872F000831010008D2B201E000F8012B0E
:10017000491EFBD270470022F6E710B513460A4627
:1001800004461946FFF7F0FF204610BDF0B480EAA0
:100190000102D40F4200B2EB410F02D202460846E0
:1001A00011464A0042D0C30DDDB2C1F3C752AD1AA9
:1001B000202D35DAC1F3160141F4000204B1524298
:1001C000C5F1200602FA06F12A411044B3EBD05FD4
:1001D00023D0C4B1012DA0EBC35009DCF0BC4FF01B
:1001E000004202EAC352DBB200F5000000F0E7B8BB
:1001F000400000F1807000EBC350A0F1807040EA35
:10020000D170490009E0490841EAC071A0EBC35030
:1002100000F50000400800EBC350F0BC00F0C6B889
:100220006142012202EB4101001BF6E7F0BC70477E
:1002300081F00041AAE780F00040A7E780EA0102D0
:1002400010B502F00043400022D04A001FD0010E3A
:1002500001EB1261C0F35600C2F3560240F40000F5
:1002600042F40002A0FB022000047F39140400D0F5
:10027000401C50EA124001D44000491EC2B20C0694
:1002800004EBD010401C4008802A02D003E000207C
:1002900010BD20F00100002900DA0020184310BD35
:1002A00030B480EA010202F0004530F0004221F053
:1002B000004013D090B1C30DD40DC2F31601C0F3AA
:1002C0001600E41A41F4000140F400027D3491422A
:1002D00001D3641C00E04900002C02DA30BC00208D
:1002E00070474FF400000023914201D3891A034361
:1002F00040084FEA4101F7D151B1914202D14FF08C
:10030000004105E002D24FF0010101E06FF0010170
:1003100003EBC450284430BC00F048B8C10F80EA59
:10032000E0700844CA079623002100F048B820F086
:100330000040C10DC0F3160040F400007F2901DA2F
:1003400000207047962903DCC1F19601C840704730
:100350009639884070470000002801DBC0F100405A
:10036000002901DBC1F1004181427047002801DB17
:10037000C0F10040002901DBC1F100418842704713
:1003800030B50B46014600202022012409E021FA65
:1003900002F59D4205D303FA02F5491B04FA02F562
:1003A0002844151EA2F10102F1DC30BD0029A8BFCE
:1003B0007047401C490008BF20F00100704710B48E
:1003C000B0FA80FC00FA0CF050EA010404BF10BC43
:1003D000704749B1CCF1200421FA04F411FA0CF170
:1003E00018BF012121430843A3EB0C01CB1D4FEAA9
:1003F00000614FEA102042BF002010BC704700EBA4
:10040000C35010440029A4BF10BC7047401C4900D1
:1004100008BF20F0010010BC70470000064C074DDB
:1004200006E0E06840F0010394E8070098471034C4
:10043000AC42F6D3FFF780FEF83B0008183C0008FA
:1004400000BFFEE721490978062939D2DFE801F02B
:10045000030F161D242B1D4949781D4A127891421D
:1004600004D11A490978491C184A11702CE017491F
:1004700008710978491C154A117025E01349487123
:100480000978491C114A11701EE010490872097858
:10049000491C0E4A117017E00C4948720978491C32
:1004A0000A4A117010E009498978094A1278914284
:1004B00005D10021054A117011464968D16003E059
:1004C0000021024A117000BF00BF70476C0300207A
:1004D00015000020704772B600BFFEE701460022FB
:1004E00091F82100022808D00420886300BF002072
:1004F00081F8200000BF012070470868006820F0E4
:100500000E000B6818600868006820F001000B6896
:10051000186091F8403001209840CB6B5860012062
:1005200081F8210000BF002081F8200000BF1046A4
:10053000E2E7000070B50446002594F82100022887
:1005400003D00420A0630125C1E02068006820F0EA
:100550000E00216808602068006820F00100216812
:1005600008605C492068884252D95A497839206825
:10057000884201D1012047E0564964392068884209
:1005800001D1102040E0534950392068884201D100
:10059000801539E04F493C392068884201D18014E8
:1005A00032E04C4928392068884202D14FF480302B
:1005B0002AE0484914392068884202D14FF480105B
:1005C00022E044492068884201D140041CE04249AD
:1005D0002068884201D1012016E03F49143120688B
:1005E000884201D110200FE03B4928312068884221
:1005F00001D1801508E038493C312068884201D19A
:10060000801401E04FF480303349091F086051E045
:10061000304978392068884201D1012047E02D49CE
:1006200064392068884201D1102040E029495039BE
:100630002068884201D1801539E026493C3920687C
:10064000884201D1801432E022492839206888424A
:1006500002D14FF480302AE01E49143920688842C4
:1006600002D14FF4801022E01A492068884201D15B
:1006700040041CE018492068884201D1012016E09E
:10068000154914312068884201D110200FE0124929
:1006900028312068884201D1801508E00E493C319C
:1006A0002068884201D1801401E04FF4803009496C
:1006B00080394860012084F8210000BF002084F8C0
:1006C000200000BF606B10B12046616B8847284650
:1006D00070BD000080000240080402402DE9F84788
:1006E000024600239C467BE14FF0010808FA03F420
:1006F000D1F8008008EA0400A0427DD1DFF8F4A21E
:10070000D1F80480A8EB0A09D0453AD014DCB8F13E
:10071000030F50D009DCB8F1000F31D0B8F1010F50
:100720001CD0B8F1020F49D120E0B8F1110F18D058
:10073000B8F1120F42D11EE0B9F5881F25D006DCB2
:10074000B9F5803F20D0B9F5801F37D11AE0B9F54F
:10075000001F18D0B9F5041F30D117E0D1F80CC034
:100760002DE0D1F80C8008F1040C28E0D1F80C80C1
:1007700008F1080C23E0D1F80C8008F10C0C1EE005
:1007800000BF00BF00BF00BF00BF00BFD1F808809E
:10079000B8F1000F02D14FF0040C0BE0D1F8088043
:1007A000B8F1010F03D14FF0080C146102E04FF0D3
:1007B000080C546103E04FF0000C00E000BF00BFE4
:1007C000FF2801D8904601E002F104084646FF28C0
:1007D00002D84FEA830803E0A3F108084FEA88082B
:1007E0004746D6F800804FF00F0909FA07F928EAC2
:1007F00009080CFA07F900E07AE048EA0908C6F8A7
:100800000080D1F8048008F08058B8F1805F6FD183
:1008100000BFDFF8E481D8F8188048F00108DFF85D
:10082000D891C9F81880C846D8F8188008F001088F
:10083000CDF8008000BF00BF4FEAB9384FEA9309F6
:1008400058F829504FEA83784FEA18794FF00F088B
:1008500008FA09F825EA0805DFF8A081424502D127
:100860004FF0000824E0DFF89881424502D14FF0B4
:1008700001081DE0DFF88C81424502D14FF00208EB
:1008800016E0DFF88481424502D14FF003080FE003
:10089000DFF87881424502D14FF0040808E0DFF824
:1008A0007081424502D14FF0050801E04FF0060883
:1008B0004FEA83794FEA197908FA09F848EA0505F9
:1008C000DFF850814FEA930948F82950D1F80480A5
:1008D00008F48018B8F5801F0BD1DFF83C81D8F8F8
:1008E000008048EA0008DFF83091C9F800800AE08B
:1008F00075E0DFF82481D8F8008028EA0008DFF8E6
:100900001891C9F80080D1F8048008F40018B8F5EF
:10091000001F0ED1DFF8008108F10408D8F800802C
:1009200048EA0008DFF8F09009F10409C9F80080EE
:100930000DE0DFF8E48008F10408D8F8008028EA28
:100940000008DFF8D49009F10409C9F80080D1F853
:10095000048008F40038B8F5003F0ED1DFF8B88005
:10096000A8F10408D8F8008048EA0008DFF8A89049
:10097000A9F10409C9F800800DE0DFF89C80A8F116
:100980000408D8F8008028EA0008DFF88C90A9F164
:100990000409C9F80080D1F8048008F48038B8F55B
:1009A000803F0ED1DFF87080A8F10808D8F80080E9
:1009B00048EA0008DFF86090A9F10809C9F800804A
:1009C0000DE0DFF85480A8F10808D8F8008028EA84
:1009D0000008DFF84490A9F10809C9F800805B1C01
:1009E000D1F8008028FA03F8B8F1000F7FF47CAE4C
:1009F000BDE8F88700001110001002400008014017
:100A0000000C01400010014000140140001801409A
:100A1000001C014008000140080401400AB10161C6
:100A200001E00B0403617047014800687047000053
:100A30001800002003480068034909780844014968
:100A400008607047180000202000002010B50848FA
:100A5000006840F0100006490860032000F0A8F884
:100A60000F2000F007F800F02BF8002010BD000068
:100A70000020024070B504460E4800784FF47A71A9
:100A8000B1FBF0F00C490968B1FBF0F5284600F025
:100A9000F9FB08B1012070BD102C07D200222146BD
:100AA000501E00F047F80548046001E00120F2E71D
:100AB0000020F0E720000020240000201C0000207F
:100AC00008B500BF1148806940F001000F498861F6
:100AD0000846806900F00100009000BF00BF00BF21
:100AE0000846C06940F08050C8610846C06900F0FF
:100AF0008050009000BF00BF00BF0549486820F04B
:100B0000E06040F00070486000BF08BD0010024087
:100B10000000014001460846002809DB00F01F03E1
:100B200001229A4043099B0003F1E023C3F800210E
:100B300000BF70472DE9F05F80460D46164600273E
:100B400002F018FE074639462A46334601F00700F0
:100B5000C0F1070ABAF1040F02D94FF0040A01E00C
:100B6000C0F1070AD14600F1040ABAF1070F02D218
:100B70004FF0000A01E0A0F1030AD4464FF0010A49
:100B80000AFA09FAAAF1010A0AEA020A0AFA0CFAAE
:100B90004FF0010B0BFA0CFBABF1010B0BEA030B53
:100BA0004AEA0B042146404602F0ECFDBDE8F09F06
:100BB00000BF00F00702064B19684FF6FF0319400B
:100BC000044B0B4343EA0221014B196000BF7047FD
:100BD0000CED00E00000FA0570B504460D460CB9B6
:100BE000012070BD5A48006800F00700A8420ED2EC
:100BF0005748006820F00700284355490860084618
:100C0000006800F00700A84201D00120E9E7207841
:100C100000F0020002281DD1207800F00400042812
:100C200005D14C48406840F4E0604A49486020786B
:100C300000F00800082805D14648406840F460509C
:100C4000444948604348406820F0F000A1680843E8
:100C500040494860207800F0010078B360680128BE
:100C600006D13C48006800F4003090B90120B8E794
:100C70006068022806D13748006800F0007040B96B
:100C80000120AEE73348006800F0020008B90120F7
:100C9000A7E73048406820F00300616808432D4909
:100CA0004860FFF7C1FE064609E0FFF7BDFE801B66
:100CB00041F28831884202D9032092E707E02548B3
:100CC000406800F00C006168B0EB810FEDD1204866
:100CD000006800F00700A8420ED91D48006820F007
:100CE000070028431A4908600846006800F007001A
:100CF000A84201D0012074E7207800F00400042805
:100D000007D11448406820F4E060E16808431149C5
:100D10004860207800F00800082808D10D48406895
:100D200020F46050216940EAC1000A49486000F09F
:100D30003FF808494968C1F30311074A515CC840AC
:100D40000649086006480068FFF794FE002048E75F
:100D50000020024000100240DE3B0008240000207A
:100D60001C0000200148006870470000240000209B
:100D700000B5FFF7F7FF04494968C1F30221034AB0
:100D8000515CC84000BD000000100240EE3B00086E
:100D900000B5FFF7E7FF04494968C1F3C221034AE0
:100DA000515CC84000BD000000100240EE3B00084E
:100DB00070B500210022002400230020134D696833
:100DC00001F00C05F5B1042D02D0082D19D101E078
:100DD0000F4819E00F4DC1F38346AB5D01F4803538
:100DE00055B10A4D6D68C5F340450B4E725D084D17
:100DF0005D43B5FBF2F402E0084D03FB05F4204629
:100E000002E000BF024800BF00BF70BD00100240FA
:100E100000127A00CC3B0008DC3B000800093D00D2
:100E2000F8B504460CB90120F8BD207800F00100A7
:100E3000002878D0F848406800F00C0004280CD056
:100E4000F548406800F00C00082811D1F2484068CD
:100E500000F48030B0F5803F0AD1EF48006800F41C
:100E6000003000285FD0606800285CD10120DBE7FB
:100E700000BF6068B0F5803F06D1E748006840F4E5
:100E80008030E549086028E0606858B9E2480068A9
:100E900020F48030E04908600846006820F4802093
:100EA00008601AE06068B0F5A02F0BD1DA4800683E
:100EB00040F48020D84908600846006840F480303B
:100EC00008600AE0D448006820F48030D249086005
:100ED0000846006820F48020086000BF606888B180
:100EE000FFF7A2FD054606E0FFF79EFD401B6428C4
:100EF00001D9032098E7C848006800F400300028B2
:100F0000F2D010E0FFF790FD054606E0FFF78CFDFC
:100F1000401B642801D9032086E7BF48006800F41D
:100F200000300028F2D1207800F00200022857D1CA
:100F3000B948406800F00C0050B1B748406800F074
:100F40000C00082818D1B448406800F4803098B9E3
:100F5000B148006800F0020020B12069012801D0EA
:100F6000012061E7AC48006820F0F800616940EAC0
:100F7000C100A949086033E02069E8B10120A74910
:100F80000860FFF751FD054606E0FFF74DFD401BE9
:100F9000022801D9032047E79F48006800F00200BB
:100FA0000028F2D09C48006820F0F800616940EA0F
:100FB000C1009949086013E0002098490860FFF7D4
:100FC00033FD054606E0FFF72FFD401B022801D93F
:100FD000032029E79048006800F002000028F2D1C1
:100FE000207800F0080008282DD1A069B8B10120B0
:100FF0008B490860FFF718FD054606E0FFF714FD72
:10100000401B022801D903200EE78348406A00F004
:1010100002000028F2D0012001F0EAFD13E00020D8
:101020007F490860FFF700FD054606E0FFF7FCFC7E
:10103000401B022801D90320F6E67748406A00F0F9
:1010400002000028F2D1207800F00400042873D1B7
:1010500000277148C06900F0805070B900BF6E4829
:10106000C06940F080506C49C8610846C06900F012
:101070008050009000BF00BF01276A48006800F45C
:101080008070B0B96748006840F4807065490860B6
:10109000FFF7CAFC054606E0FFF7C6FC401B6428C4
:1010A00001D90320C0E65F48006800F48070002882
:1010B000F2D000BFE068012806D15748006A40F02E
:1010C00001005549086227E0E06858B95248006AB3
:1010D00020F00100504908620846006A20F0040030
:1010E000086219E0E06805280BD14B48006A40F01F
:1010F0000400494908620846006A40F0010008629D
:101100000AE04548006A20F00100434908620846A9
:10111000006A20F00400086200BFE068A0B1FFF799
:1011200083FC054609E0FFF77FFC401B41F2883154
:10113000884202D9032077E622E03748006A00F0AF
:1011400002000028EFD012E0FFF76EFC054608E031
:10115000FFF76AFC401B41F28831884201D9032025
:1011600062E62D48006A00F002000028F0D1012F4D
:1011700005D12948C06920F080502749C86100BFC7
:10118000E069C8B32448406800F00C00082860D02B
:10119000E069022848D1002020490866FFF744FC96
:1011A000054606E0FFF740FC401B022801D903205A
:1011B0003AE61948006800F000700028F2D1206A71
:1011C000B0F5803F07D11448406820F40030A16892
:1011D000084311494860D4E9080108430E494968A9
:1011E00021F4741108430C49486001200B4908663A
:1011F000FFF71AFC054607E03DE0FFF715FC401B32
:10120000022801D903200FE60348006800F00070AF
:101210000028F2D02FE000000010024000004242FF
:101220008004424200700040002014490866FFF725
:10123000FBFB054606E0FFF7F7FB401B022801D940
:101240000320F1E50E48006800F000700028F2D19C
:1012500011E0E069012800D1E6E50948466806F496
:101260008031206A814204D106F47011606A8142A3
:1012700001D00120D8E50020D6E500000000424260
:101280000010024070B504462546681EB0F1807F0C
:1012900001D301200FE0681E4FF0E02148610F21CB
:1012A0004FF0FF3002F06EFA00204FF0E02188612D
:1012B00007200861002070BD7047704730B50246B6
:1012C0000B4600BF92F83C00012801D1022030BD3E
:1012D000012082F83C0000BF022082F83D00106827
:1012E00044681068816824F070041868044310682A
:1012F0004460144D1068A84213D0134D1068A842E2
:101300000FD01068B0F1804F0BD0104D1068A8427C
:1013100007D00F4D1068A84203D00E4D1068A842A8
:1013200005D121F0800158680143106881600120D7
:1013300082F83D0000BF002082F83C0000BF00BFE3
:10134000C5E70000002C01400034014000040040CB
:1013500000080040000C004010B504460CB9012004
:1013600010BD94F83D0028B9002084F83C002046C8
:1013700000F026F8022084F83D00211D206801F0CD
:101380000BFE012084F8460000BF84F83E000121D6
:101390003F200155402001554120015500BF00BFAD
:1013A000012084F842004320015544200155452086
:1013B000015500BF012084F83D000020D0E7000067
:1013C00038B504460D492068884215D100BF0C4845
:1013D000806940F400600A4988610846806900F429
:1013E0000060009000BF00BF002211461920FFF7E7
:1013F000A1FB1920FFF78EFB38BD0000002C014037
:1014000000100240014691F83D00012801D0012062
:101410007047022081F83D000868C06840F0010074
:101420000B68D860164B0868984213D0154B0868B3
:1014300098420FD00868B0F1804F0BD0124B08686B
:10144000984207D0114B0868984203D0104B0868A7
:1014500098420CD10868806800F00702062A0CD078
:101460000868006840F001000B68186005E0086833
:10147000006840F001000B6818600020C8E7000019
:10148000002C0140003401400004004000080040EE
:10149000000C00402DE9F04104460D46002700BF36
:1014A00094F83C00012802D10220BDE8F08101201F
:1014B00084F83C0000BF022084F83D002068866864
:1014C00026F0770626F47F46206886602868502834
:1014D00033D00CDC202850D004DC00284BD010285E
:1014E00051D149E0302849D040284CD139E060281A
:1014F0002DD0702807D0B0F5805F03D0B0F5005F25
:1015000041D10DE041E0D5E902136A68206801F09D
:10151000A2FD2068866846F077062068866034E081
:10152000D5E902136A68206801F095FD206880689B
:1015300040F480402168886027E0EA686968206894
:1015400001F07AFE5021206801F090FD1DE0EA686C
:101550006968206801F083FE6021206801F086FD43
:1015600013E0EA686968206801F066FE402120689F
:1015700001F07CFD09E000BF00BF00BF29682068C2
:1015800001F074FD01E0012700BF00BF012084F8D5
:101590003D0000BF002084F83C0000BF384684E7CF
:1015A0002DE9F04104460D4614B90120BDE8F08153
:1015B00094F83D0028B9002084F83C00204600F053
:1015C00051F8022084F83D002068806844F2070149
:1015D000884321688860211D206801F0DDFC2068B7
:1015E000D0F80880206886692068076A286840EA81
:1015F000080840F203308643A969A86840EA012040
:10160000064340F60C4086434FF2F0008643E969FA
:10161000E86840EA0120064328690001296A40EA97
:101620000130064327F022076969686840EA011023
:1016300007432068C0F80880206886612068076238
:10164000012084F8460084F83E0001213F20015526
:10165000012084F8420043200155012084F83D0018
:101660000020A3E710B586B0044600200290039046
:101670000490059052492068884224D100BF514807
:10168000C06940F002004F49C8610846C06900F0D7
:101690000200019000BF00BF00BF0846806940F013
:1016A000040088610846806900F00400019000BFD2
:1016B00000BFC020029000200390049002A942487D
:1016C000FFF70CF879E041492068884224D100BF37
:1016D0003C48C06940F004003A49C8610846C06906
:1016E00000F00400019000BF00BF00BF0846806901
:1016F00040F0080088610846806900F00800019009
:1017000000BF00BFC020029000200390049002A9F7
:101710002F48FEF7E3FF50E02E492068884224D18D
:1017200000BF2848C06940F008002649C861084643
:10173000C06900F00800019000BF00BF00BF08466C
:10174000806940F0040088610846806900F0040068
:10175000019000BF00BF032002900020039004907E
:1017600002A91948FEF7BAFF27E01B492068884202
:1017700023D100BF1348806940F4005011498861AB
:101780000846806900F40050019000BF00BF00BF10
:101790000846806940F0100088610846806900F0C2
:1017A0001000019000BF00BFC020029000200390F5
:1017B000049002A90948FEF791FF06B010BD000091
:1017C00000040040001002400008014000080040F2
:1017D000000C0140000C00400034014000100140AA
:1017E0002DE9F04304460D4694F83E603F20075D26
:1017F00094F84280432010F804906DB9012E02D174
:10180000B8F1010F02D00120BDE8F083022084F876
:101810003E0084F8420025E0042D0CD1012F02D1B6
:10182000B9F1010F01D00120EEE702213F2001555F
:101830004320015516E0012E07D1012F05D1B8F143
:10184000010F02D1B9F1010F01D00120DCE7022024
:1018500084F83E0002213F200155022084F8420016
:101860004320015515B1042D0CD105E001220021C2
:10187000206801F0DFFB10E001220421206801F064
:10188000D9FB0AE001220021206801F0D3FB0122EC
:101890000421206801F0CEFB00BF00BF2068006873
:1018A00040F00100216808600020ADE7704710B5E6
:1018B000044620680069C0F34000D8B12068C068C1
:1018C000C0F34000B0B16FF0020021680861012050
:1018D00020772068806900F0030018B12046FFF7E8
:1018E000E5FF05E0204600F0FDF8204600F0C6F9CF
:1018F0000020207720680069C0F38000D8B12068FC
:10190000C068C0F38000B0B16FF0040021680861C6
:10191000022020772068806900F4407018B12046CA
:10192000FFF7C4FF05E0204600F0DCF8204600F099
:10193000A5F90020207720680069C0F3C000D8B165
:101940002068C068C0F3C000B0B16FF00800216823
:101950000861042020772068C06900F0030018B1F6
:101960002046FFF7A3FF05E0204600F0BBF8204625
:1019700000F084F90020207720680069C0F300108F
:10198000D8B12068C068C0F30010B0B16FF010008B
:1019900021680861082020772068C06900F4407041
:1019A00018B12046FFF782FF05E0204600F09AF8C4
:1019B000204600F063F9002020772068006900F0DD
:1019C000010058B12068C06800F0010030B16FF02C
:1019D000010021680861204600F0CCF92068006908
:1019E000C0F3C01058B12068C068C0F3C01030B157
:1019F0006FF08000216808612046FFF75DFC2068D9
:101A00000069C0F3801058B12068C068C0F380102E
:101A100030B16FF0400021680861204600F0C6F93F
:101A200020680069C0F3401058B12068C068C0F356
:101A3000401030B16FF02000216808612046FFF7A8
:101A40003CFC10BD10B586B0044600200290039007
:101A5000049005902068B0F1804F39D100BF1D4837
:101A6000806940F008001B4988610846806900F0E1
:101A70000800019000BF00BF00BF0846806940F029
:101A8000040088610846806900F00400019000BFEE
:101A900000BF40F60840029002200390059002A982
:101AA0000D48FEF71BFE4FF4004002900220039009
:101AB000059002A90948FEF711FE00BF08494868D1
:101AC00020F4407040F0E06040F44070486000BF97
:101AD00006B010BD00100240000C0140000801409B
:101AE0000000014070472DE9F04104460D461646BE
:101AF000002700BF94F83C00012802D10220BDE875
:101B0000F081012084F83C0000BF36B1042E1BD0C8
:101B1000082E31D00C2E5ED145E02946206801F018
:101B2000AFFA2068806940F0080021688861206869
:101B3000806920F004002168886120688069296933
:101B400008432168886148E02946206801F0D0FAFE
:101B50002068806940F4006021688861206880699D
:101B600020F480602168886120688069296940EAE2
:101B700001202168886130E02946206801F0F6FAEA
:101B80002068C06940F008002168C8612068C06909
:101B900020F004002168C8612068C06929690843F1
:101BA0002168C86119E02946206801F01BFB206804
:101BB000C06940F400602168C8612068C06920F4F1
:101BC00080602168C8612068C069296940EA0120F5
:101BD0002168C86101E0012700BF00BF00BF0020ED
:101BE00084F83C0000BF384689E710B504460CB9BC
:101BF000012010BD94F83D0028B9002084F83C0075
:101C0000204600F025F8022084F83D00211D2068C0
:101C100001F0C2F9012084F8460000BF84F83E00BC
:101C200001213F200155402001554120015500BFB1
:101C300000BF012084F84200432001554420015593
:101C40004520015500BF012084F83D000020D0E769
:101C500008B50168B1F1804F0DD100BF0649C969CF
:101C600041F00101044AD1611146C96901F0010145
:101C7000009100BF00BF08BD001002407047000087
:101C800070B504460D4615B994F83E000BE0042DDE
:101C900002D13F20005D06E0082D02D14020005D0A
:101CA00001E04120005D012801D0012070BD1DB977
:101CB000022084F83E000EE0042D03D102213F20D3
:101CC000015508E0082D03D102214020015502E012
:101CD00002214120015501222946206801F0AAF97C
:101CE0001F492068884203D01E492068884201D1DC
:101CF000012000E0002028B12068406C40F4004042
:101D00002168486416492068884213D01549206824
:101D100088420FD02068B0F1804F0BD01249206864
:101D2000884207D011492068884203D010492068B2
:101D300088420CD12068806800F00706062E0CD07F
:101D40002068006840F001002168086005E0206814
:101D5000006840F00100216808600020A6E700004C
:101D6000002C014000340140000400400008004005
:101D7000000C004010B50446084884420DD100F024
:101D80004FFD07480268074801680748006801F0EE
:101D900041F801F035FC00F067FE10BDE4000020C2
:101DA0000800002004000020000000207047704759
:101DB000704700002DE9F84F044620680568206848
:101DC000C668206847694FF00009CA4605F00F0948
:101DD000B9F1000F0AD105F0200038B106F020005B
:101DE00020B1204601F0A8FABDE8F88FB9F1000F44
:101DF0007BD007F0010018B906F49070002874D069
:101E000005F0010030B106F4807018B1606C40F04C
:101E10000100606405F0040030B107F0010018B162
:101E2000606C40F00200606405F0020030B107F021
:101E3000010018B1606C40F00400606405F0080017
:101E400048B106F0200010B907F0010018B1606C2D
:101E500040F008006064606C002845D005F0200068
:101E600028B106F0200010B1204601F065FA206884
:101E70004069C0F3801A606C00F0080010B9BAF134
:101E8000000F2CD0204601F011FA2068406900F0C4
:101E9000400000B300BF00BF2168143151E8001FAB
:101EA00021F040002168143141E80002002AF3D1FA
:101EB00000BFE06B50B17748E16B4863E06BFEF721
:101EC00039FB88B1E06B416B88470DE02046FFF796
:101ED0006FFF09E009E02046FFF76AFF04E02046B3
:101EE000FFF766FF002060647EE7206B012877D152
:101EF00005F01000002873D006F010000028FAD07A
:101F000000BF0020009020680068009020684068B2
:101F1000009000BF00BF2068406900F0400000282A
:101F20005FD0E06B006840681FFA80F8B8F1000FDE
:101F300055D0A08D404552DDA4F82E80E06B80691D
:101F4000202843D000BF00BF21680C3151E8001F9A
:101F500021F4807021680C3141E80002002AF3D19D
:101F600000BF00BF00BF2168143151E8001F21F0FD
:101F700001002168143141E80002002AF3D100BFBA
:101F800000BF00BF2168143151E8001F21F040005C
:101F90002168143141E80002002AF3D100BF20205B
:101FA00084F842000020206300BF00BF21680C318C
:101FB00051E8001F21F0100021680C3141E80002B7
:101FC000002AF3D100BFE06BFEF788FA02206063BD
:101FD000A08DE28D801A81B22046FFF7E8FE03E76C
:101FE00042E0A08DE18D401A1FFA80F8E08DD0B359
:101FF000B8F1000F37D000BF00BF21680C3151E8A5
:10200000001F21F4907021680C3141E80002002A81
:10201000F3D100BF00BF00BF2168143151E8001F99
:1020200021F001002168143141E80002002AF3D1B7
:1020300000BF202084F842000020206300BF00BFC2
:1020400021680C3151E8001F21F0100021680C318B
:1020500041E80002002AF3D100BF0220606341463C
:102060002046FFF7A4FEBFE605F0800030B106F081
:10207000800018B1204601F07BFAB5E605F040007B
:1020800030B106F0400018B1204601F045F9ABE64A
:1020900000BFA9E69932000810B504460CB901202A
:1020A00010BDA06900B100E000BF94F8410028B95C
:1020B000002084F84000204600F02AF8242084F80C
:1020C00041002068C06820F400502168C8602046A4
:1020D00001F0B0F92068006920F49040216808619F
:1020E0002068406920F02A00216848612068C068A3
:1020F00040F400502168C86000206064202084F80B
:10210000410084F842000020606300BFC8E700007F
:1021100010B586B00446002002900390049005900C
:102120005F492068884237D100BF5E48806940F42B
:1021300080405C4988610846806900F480400190D5
:1021400000BF00BF00BF0846806940F004008861FE
:102150000846806900F00400019000BF00BF4815E8
:102160000290022003900320059002A94E48FEF73A
:10217000B5FA4FF48060029000200390049002A909
:102180004948FEF7ABFA002211462520FEF7D2FCA3
:102190002520FEF7BFFC81E044492068884236D103
:1021A00000BF4048C06940F400303E49C86108465D
:1021B000C06900F40030019000BF00BF00BF0846B6
:1021C000806940F0040088610846806900F00400DE
:1021D000019000BF00BF0420029002200390032062
:1021E000059002A93048FEF779FA082002900020F5
:1021F0000390049002A92C48FEF770FA00221146C1
:102200002620FEF797FC2620FEF784FC46E02849AE
:102210002068884242D100BF2248C06940F4802033
:102220002049C8610846C06900F48020019000BFC1
:1022300000BF00BF0846806940F010008861084672
:10224000806900F01000019000BF00BF08150290E7
:10225000022003900320059002A91648FEF73EFADB
:102260004FF400600290002003900120049002A926
:102270001048FEF733FA00BF0F49486820F03000DD
:1022800040F0E06040F01000486000BF00221146BE
:102290002720FEF74FFC2720FEF73CFC06B010BDC0
:1022A0000038014000100240000801400044004096
:1022B00000480040001001400000014070B5044695
:1022C0000D46164694F8420020280BD105B10EB9F0
:1022D000012070BD0020206332462946204601F0CF
:1022E00027F9F6E70220F4E710B5044610488442C7
:1022F00009D11049002000F091FC01220E490C4840
:10230000FFF7DCFF13E00D48844209D10C48007848
:10231000FEF798F801220A490848FFF7CFFF06E0C8
:102320000848844203D101220749FFF7C7FF10BDC7
:10233000940200200000B44214000020DC020020BF
:1023400015000020240300201600002010B50346CD
:1023500093F84100202813D101B10AB9012010BD22
:1023600019629A84DA8400205864212083F841009D
:102370001868C06840F080001C68E0600020EEE74C
:102380000220ECE7704700BFFEE7000000B585B013
:102390000020019002900390049000BF2C488069B7
:1023A00040F020002A4988610846806900F020003A
:1023B000009000BF00BF00BF0846806940F01000D9
:1023C00088610846806900F01000009000BF00BFDF
:1023D00000BF0846806940F00400886108468069B3
:1023E00000F00400009000BF00BF00BF08468069F5
:1023F00040F0080088610846806900F008000090FD
:1024000000BF00BF00220F211248FEF707FB002289
:102410004FF44C711048FEF701FB0F200190012092
:102420000290002003900220049001A90948FEF7C1
:1024300055F94FF44C700190012002900020039058
:102440000220049001A90448FEF748F905B000BD38
:102450000010024000100140000C014000B587B0A0
:10246000002003900490059006900190029015487A
:10247000154908604720486000211348816042F2F6
:102480000F71C16000210161416180218161FEF70E
:1024900063FF08B1FEF71FF84FF48050039003A9C3
:1024A0000948FEF7F7FF08B1FEF715F80020019084
:1024B000029001A90448FEF701FF08B1FEF70BF8EE
:1024C00007B000BD002C0140E400002000B589B039
:1024D0000020079008901C216846FDF74CFE4FF045
:1024E0008040234908600020486000212048816026
:1024F0004FF6FF71C160002101618161FFF775FB3B
:1025000008B1FDF7E8FF00200790089007A91848D8
:10251000FEF7D4FE08B1FDF7DEFF6020009000203A
:10252000019002900490002269461148FFF7DBFAFF
:1025300008B1FDF7D0FF042269460D48FFF7D3FA32
:1025400008B1FDF7C8FF082269460948FFF7CBFA32
:1025500008B1FDF7C0FF0C2269460548FFF7C3FA32
:1025600008B1FDF7B8FF0248FFF76CFA09B000BDEB
:102570002C01002000B58BB0242102A8FDF7FBFD43
:102580000020009001901948194908600020486017
:102590000021174881604FF6FF71C1600021016181
:1025A000816103200290002003900120049000200C
:1025B000059002200690002007900120089000203E
:1025C000099002200A9002A90948FEF7E9FF08B124
:1025D000FDF781FF00200090019069460448FEF756
:1025E0006DFE08B1FDF777FF0BB000BD00040040A1
:1025F0007401002000B58BB0242102A8FDF7BBFDBB
:102600000020009001901948194908600020486096
:102610000021174881604FF6FF71C1600021016100
:10262000816103200290002003900120049000208B
:1026300005900220069000200790012008900020BD
:10264000099002200A9002A90948FEF7A9FF08B1E3
:10265000FDF741FF00200090019069460448FEF715
:102660002DFE08B1FDF737FF0BB000BD000800409C
:10267000BC01002000B58BB0242102A8FDF77BFD32
:102680000020009001901948194908600020486016
:102690000021174881604FF6FF71C1600021016180
:1026A000816103200290002003900120049000200B
:1026B000059002200690002007900120089000203D
:1026C000099002200A9002A90948FEF769FF08B1A3
:1026D000FDF701FF00200090019069460448FEF7D5
:1026E000EDFD08B1FDF7F7FE0BB000BD000C00409A
:1026F0000402002000B58BB0242102A8FDF73BFDA9
:102700000020009001901A481A4908600020486093
:102710000021184881604FF6FF71C16000210161FE
:102720004161816103200290002003900120049008
:1027300000200590022006900020079001200890BC
:102740000020099002200A9002A90A48FEF728FFFB
:1027500008B1FDF7C0FE00200090019069460548D1
:10276000FEF7ACFD08B1FDF7B6FE0BB000BD0000F2
:10277000003401404C02002010B50B480B490860A2
:102780004FF4E1304860002108488160C160016178
:102790000C21416100218161C161FFF77DFC08B11D
:1027A000FDF799FE10BD00000038014094020020A2
:1027B00010B50B480B4908604FF4E1304860002128
:1027C00008488160C16001610C2141610021816183
:1027D000C161FFF761FC08B1FDF77DFE10BD00008F
:1027E00000440040DC02002010B50B480B49086093
:1027F0004FF4E1304860002108488160C160016108
:102800000C21416100218161C161FFF745FC08B1E4
:10281000FDF761FE10BD00000048004024030020C9
:102820002DE9F05F4EF6602455480068456A55482A
:102830000068466A54480068476A54480068D0F8FF
:102840002480A54201DA284602E0A5F57F40FF3842
:1028500005466042854201DD284602E04FF6FF70E2
:1028600028440546A64201DA304602E0A6F57F403C
:10287000FF3806466042864201DD304602E04FF6F0
:10288000FF7030440646A74201DA384602E0A7F559
:102890007F40FF3807466042874201DD384602E04C
:1028A0004FF6FF7038440746A04501DA404602E083
:1028B000A8F57F40FF3880466042804501DD4046F4
:1028C00002E04FF6FF7040448046642105FB01F0B2
:1028D000FDF724FD83462E49FDF7B0FC82462D49C5
:1028E000FDF7ACFC81462C49FDF7DAFC2B4908606A
:1028F000642106FB01F0FDF711FD83462449FDF735
:102900009DFC82462349FDF799FC81462249FDF74B
:10291000C7FC23490860642107FB01F0FDF7FEFCBA
:1029200083461B49FDF78AFC82461A49FDF786FC5F
:1029300081461949FDF7B4FC1A490860642108FB77
:1029400001F0FDF7EBFC83461149FDF777FC824669
:102950001049FDF773FC81460F49FDF7A1FC1249B0
:10296000086000200649096848620649096848620B
:10297000054909684862054909684862BDE8F09F51
:10298000BC0100204C020020740100200402002041
:10299000D80F4940B81E853D0000B64428000020ED
:1029A00040000020340000204C00002000BFFEE763
:1029B00010B504211F48FFF763F900211D48FFF7F8
:1029C0005FF90C211B48FFF75BF908211948FFF755
:1029D00057F93C211848FEF703FF3C211748FEF742
:1029E000FFFE3C211648FEF7FBFE3C211548FEF792
:1029F000F7FE00231A461449144800F0E9F80023B2
:102A00001A461149124800F0E3F800231A460E490D
:102A1000104800F0DDF800231A460B490E4800F07C
:102A2000D7F800200D4908600D4908600D4908607D
:102A300010BD00002C010020BC0100204C02002031
:102A4000740100200402002000409C456400002026
:102A500084000020A4000020C4000020000000200A
:102A6000040000200800002010B55149486801F01A
:102A700053F80446FDF75BFC4E49096888634C49EE
:102A800048680021FDF772FC01D2012000E000201F
:102A9000044622464FF480714748FDF7BFFF444982
:102AA00048680021FDF758FC01D2012000E0002019
:102AB000044622464FF400713F48FDF7AFFF3F49FF
:102AC000486801F029F80446FDF731FC39490968E6
:102AD00048633A4948680021FDF748FC01D20120CB
:102AE00000E000200446224610213348FDF796FFFF
:102AF000324948680021FDF72FFC01D2012000E097
:102B000000200446224620212B48FDF787FF2C4950
:102B1000486801F001F80446FDF709FC25490968F9
:102B20000864274948680021FDF720FC01D20120F4
:102B300000E000200446224604212248FDF76EFFF3
:102B40001F4948680021FDF707FC01D2012000E081
:102B500000200446224608211A48FDF75FFF1A4963
:102B6000486800F0D9FF0446FDF7E1FB1149096808
:102B7000C863154948680021FDF7F8FB01D2012020
:102B800000E000200446224601210E48FDF746FFE2
:102B90000D4948680021FDF7DFFB01D2012000E06C
:102BA00000200446224602210648FDF737FF10BDEB
:102BB000280000202C010020000C014040000020D3
:102BC00034000020001001404C00002000BFFEE750
:102BD00010B541618261C361002404604460846077
:102BE000C460014C046110BD00409C467047000069
:102BF00008B508490968C9084FF47A72B1FBF2F1C7
:102C00004143009100BF00BF00994A1E0092002975
:102C1000F9D108BD24000020704700002DE9F047DD
:102C200005460C460A492046FDF708FB814609493E
:102C3000FDF736FB80460849FDF7A8FA0746FDF781
:102C400076FB86B23146284600F008F8BDE8F087EA
:102C50000000FA44000087430080BB447FB505466E
:102C60000C46B4F5FA7F02DA4FF4FA7005E040F64C
:102C7000C410844200DD00E0204603462A4605A138
:102C8000684600F063FD0F2269460748FFF75EFBC8
:102C90007FBD000023253033645025303464543028
:102CA0003530302100000000240300202DE9F047DA
:102CB00006460C461546544F00213046FDF756FB9C
:102CC00007D2524908683946FDF760FA4F49086053
:102CD00018E000213046FDF73FFB07D24B4908685A
:102CE0003946FDF7A5FA494908600BE00021304656
:102CF000FDF732FB06D1454908684549FDF79EFAC4
:102D00004249086000212046FDF730FB07D23F49C9
:102D100048683946FDF73AFA3C49486018E0002116
:102D20002046FDF719FB07D2384948683946FDF7B8
:102D30007FFA364948600BE000212046FDF70CFB86
:102D400006D1324948683249FDF778FA2F49486080
:102D500000212846FDF70AFB07D22C49886839462E
:102D6000FDF714FA2949886018E000212846FDF78C
:102D7000F3FA07D2254988683946FDF759FA2349FD
:102D800088600BE000212846FDF7E6FA06D11F49CE
:102D900088681F49FDF752FA1C498860304600F0E8
:102DA000BBFE8146304600F0B7FE80F00048174970
:102DB0004A460868414600F0F5FE1449086020467E
:102DC00000F0AAFE8146204600F0A6FE80F00048F2
:102DD0000E494A464868414600F0E4FE0B49486007
:102DE000284600F099FE8146284600F095FE80F0C6
:102DF000004806494A468868414600F0D3FE034928
:102E00008860BDE8F0870000CDCC4C3D5800002024
:102E10006666663F2DE9F04705460C461646324683
:102E200021462846FFF742FF344805684468866813
:102E300033493046FDF702FA074621462846FDF79A
:102E4000A5F980463946FDF7F3F92E4988602C49EB
:102E50003046FDF7F3F9814684F0004829464046A4
:102E6000FDF794F907464946FDF7E2F926498860DF
:102E700023493046FDF7E2F9074621462846FDF78B
:102E800085F980463946FDF781F9204988601C495B
:102E90003046FDF7D3F9814684F000482946404684
:102EA000FDF774F907464946FDF770F9184988603F
:102EB00014494FF07E528868164900F073FE11499C
:102EC000886011494FF07E528868124900F06AFE0E
:102ED0000D4988600D494FF07E5288680D4900F019
:102EE00061FE0A4988600A494FF07E5288680949A4
:102EF00000F058FE06498860BDE8F08758000020C1
:102F000096438B3E28000020400000203400002023
:102F10004C000020000080BF10B5FDF78BFD10BDF8
:102F200000B58FB0282105A8FDF725F914216846C2
:102F3000FDF721F90120059000040690002007907C
:102F40000120099002200C90C1030D914FF4E01173
:102F50000E9105A8FDF764FF08B1FDF7BCFA0F203C
:102F6000009002200190002002904FF480600390B6
:102F70000020049002216846FDF72EFE08B1FDF7FF
:102F8000AAFA0FB000BD704710B50248FEF78FFCDB
:102F900010BD0000E400002010B50268204B9842EC
:102FA0000ED0204B98420BD0B0F1804F08D01E4B72
:102FB000984205D01D4B984202D01D4B984203D138
:102FC00022F070024B681A43154B98420ED0154BF5
:102FD00098420BD0B0F1804F08D0134B984205D0E7
:102FE000124B984202D0124B984203D122F4407205
:102FF000CB681A4322F080034C6943EA0402026062
:103000008B68C3620B688362054B984202D0054B04
:10301000984201D10B6903630123436110BD000095
:10302000002C014000340140000400400008004032
:10303000000C004030B501F01F05012404FA05F32F
:10304000046A9C430462046A01F01F0502FA05F554
:103050002C43046230BD30B50C46816821F47F41B9
:1030600042EA032525432943816030BD0A46816831
:1030700021F0700142F0070319438160704700009E
:1030800030B5026A056A25F0010505624368846966
:1030900024F0700424F003040D682C4322F0020293
:1030A0008D682A43104DA84200D103E00F4DA8427D
:1030B00006D100BF22F00802CD682A4322F00402A4
:1030C000094DA84202D0094DA84207D123F48073CC
:1030D00023F400734D692B438D692B434360846156
:1030E0004D684563026230BD002C01400034014050
:1030F00030B5026A056A25F01005056243688469E7
:1031000024F4E04424F440740D6844EA052422F0D9
:1031100020028D6842EA0512124DA84200D103E058
:10312000114DA84207D100BF22F08002CD6842EACB
:10313000051222F040020B4DA84202D00A4DA842CF
:1031400009D123F4806323F400634D6943EA8503C6
:103150008D6943EA8503436084614D68856302623B
:1031600030BD0000002C01400034014030B5026A3F
:10317000056A25F4807505624368C46924F070040B
:1031800024F003040D682C4322F400728D6842EA97
:103190000522124DA84200D103E0114DA84207D1EB
:1031A00000BF22F40062CD6842EA052222F4806268
:1031B0000A4DA84202D00A4DA84209D123F48053F7
:1031C00023F400534D6943EA05138D6943EA05135F
:1031D0004360C4614D68C563026230BD002C01408C
:1031E0000034014030B5036A056A25F48055056254
:1031F0004468C26922F4E04222F440720D6842EA57
:10320000052223F400538D6843EA0533084DA84294
:1032100002D0084DA84204D124F480444D6944EA08
:1032200085144460C2614D680564036230BD0000CE
:10323000002C01400034014030B50B461446026AB0
:10324000056A25F001050562816921F0F00141EA76
:10325000041122F00A021A438161026230BD30B5C6
:103260000B461446026A056A25F01005056281695D
:1032700021F4704141EA043122F0A00242EA031233
:103280008161026230BD0000AA20024948705520C9
:10329000887070476C03002070B505466C6A00208A
:1032A000E085E0842046FEF783FD70BD00BF00BFCF
:1032B00002680C3252E8002F22F4907102680C323E
:1032C00042E80013002BF3D100BF00BF00BF02682B
:1032D000143252E8002F22F001010268143242E851
:1032E0000013002BF3D100BF016B01290ED100BFE9
:1032F00000BF02680C3252E8002F22F01001026871
:103300000C3242E80013002BF3D100BF202180F8DB
:10331000421000210163704710B504462068C06860
:1033200020F040002168C860202084F84100204639
:10333000FFF728F8002010BDF8B5044694F84200C5
:10334000222875D1A068B0F5805F0CD1206950B9F2
:103350000025A66A20684068C0F308003080A06A93
:10336000801CA06215E0A56A0026A068B0F5805F09
:1033700003D0A06828B9206918B92068406828706F
:1033800004E02068406800F07F002870A06A401CBC
:10339000A062E08D401E80B2E085002846D1206802
:1033A000C06820F020002168C8602068C06820F450
:1033B00080702168C8602068406920F001002168A1
:1033C0004861202084F8420000206063206B0128BF
:1033D00026D10020206300BF00BF21680C3151E8D6
:1033E000001F21F0100021680C3141E80002002A82
:1033F000F3D100BF2068006800F0100010280AD147
:1034000000BF00200090206800680090206840689D
:10341000009000BF00BFA18D2046FEF7C8FC02E06F
:103420002046FEF761FF0020F8BD01E00020FBE729
:103430000220F9E770B504462168096921F440517A
:10344000E2681143226811612269A168114362692F
:1034500041EA02052168C96841F20C62914329439F
:103460002268D1602168496921F44071A269114341
:10347000226851612D4A2168914202D1FDF788FCF2
:1034800001E0FDF775FC00EBC00101EB0011626883
:103490009200B1FBF2F100EBC00202EB0012636894
:1034A0009B00B2FBF3F26423B2FBF3F202EBC20324
:1034B00003EB0212A1EB8201322202EB0111642222
:1034C000B1FBF2F101F0F00100EBC00202EB0012DF
:1034D00063689B00B2FBF3F26423B2FBF3F201EBEF
:1034E000021200EBC00101EB001163689B00B1FB0D
:1034F000F3F100EBC00303EB00136668B600B3FB07
:10350000F6F36426B3FBF6F303EBC30606EB0313F3
:10351000A1EB8301322303EB01116423B1FBF3F12F
:1035200001F00F0111442268916070BD0038014024
:1035300010B5034699629A85DA85002058642220E6
:1035400083F84200186928B11868C06840F4807098
:103550001C68E0601868406940F001001C68606108
:103560001868C06840F020001C68E060002010BDB2
:10357000014691F84100212828D18868B0F5805F84
:103580000BD1086948B90A6A1088C0F308000B68B3
:103590005860086A801C086205E00B6A581C0862C3
:1035A00018780B685860C88C401E80B2C88458B91F
:1035B0000868C06820F080000B68D8600868C068A0
:1035C00040F040000B68D860002070470220FCE704
:1035D00010B50248FEF7EEFB10BD0000940200207B
:1035E00010B50248FEF7E6FB10BD0000DC0200202B
:1035F00010B50248FEF7DEFB10BD000024030020DA
:1036000010B5264880682649086026488068264903
:103610000860264880682649086026488068264950
:1036200008601E48031D002201681D4800F04AF88A
:103630001C48031D002201681B4800F043F81B488A
:10364000031D002201681A4800F03CF81948031DC8
:1036500000220168184800F035F81049174A4868F8
:10366000174900F09FFA0D4948600E49134A48680F
:10367000134900F097FA0B4948600C490F4A486813
:103680000F4900F08FFA094948600A490B4A486817
:103690000B4900F087FA0749486010BD2800002058
:1036A000640000204000002084000020340000203E
:1036B000A40000204C000020C40000200018764721
:1036C000001876C72DE9F84F04460F4616461D46EA
:1036D00039462068FCF7ACFD60606168E068FCF783
:1036E00055FDE060D4E90301FCF740FE02D22069F9
:1036F000E0600BE0206980F000484046E168FCF79C
:1037000035FE03D2206980F00040E0603146E06978
:10371000FCF794FD0090E168A069FCF78FFD8246FC
:1037200061686069FCF78AFD83465146FCF72EFD0F
:1037300081460099FCF72AFD80462968FCF726FDA2
:103740002860BDE8F88F00BFFEE700000FB4084B0B
:1037500010B504A902AA039800F038F8044602A99B
:10376000002000F0D4F9204610BC5DF814FB0000E6
:103770000F3B000802480068C0F3022070470000B9
:103780000CED00E010B5002804DB0A07130E054A13
:10379000135406E00A07140E034A00F00F031B1F20
:1037A000D45410BD00E400E018ED00E002E008C8C9
:1037B000121F08C1002AFAD170477047002001E0AB
:1037C00001C1121F002AFBD1704700002DE9FF4FF5
:1037D0008BB088460546002606E025280BD0DDE99B
:1037E0000D1290476D1C761C28780028F5D10FB07B
:1037F0003046BDE8F08F0024A146A2460122AE4922
:1038000000E0044315F8013F203B02FA03F00842B0
:10381000F7D128782A2810D06FF02F022878A0F14D
:103820003001092915D809EB890102EB410144F067
:10383000020400EB01096D1CF0E758F8041B5FEA75
:10384000010903D544F40054C9F1000944F002040D
:103850006D1C28782E2817D115F8010F44F00404A8
:103860002A280ED06FF02F022878A0F13001092904
:103870000AD80AEB8A0102EB410100EB010A6D1C38
:10388000F2E758F804AB6D1C28786C280FD006DCE2
:103890004C2817D068280DD06A2814D104E0742869
:1038A00010D07A280FD10DE044F400140AE044F45B
:1038B000801401E044F440146978814202D104F597
:1038C00080146D1C6D1C2878692865D006DC0028E2
:1038D0008DD0632827D0642806D15DE06E2808D0FB
:1038E00073282AD0752877D0DDE90D129047761C11
:1038F000E0E0C4F30250022809D003280DD0D8F824
:10390000001004280DD00E6008F10408D2E0D8F8A9
:103910000010F217C1E90062F6E7D8F800100E8037
:10392000F2E70E70F0E718F8041B8DF80010002085
:103930008DF80100EB46012003E058F804BB4FF07E
:10394000FF3061074FF0000701D40AE07F1C5745A4
:103950000DDA8742FADB1BF807100029F6D106E0E2
:103960007F1C8742FCDB1BF807100029F8D1DDE93A
:103970000D23A9EB07008146214600F0B1F8304441
:10398000C61904E0DDE90D121BF8010B90477F1EFC
:10399000F8D22146484688E058F8040BC4F3025197
:1039A0004FF00A0B032900D100B2042900D140B224
:1039B000002802DA40422D2102E0210505D52B2105
:1039C0008DF82410012104E006E0E10710D0202149
:1039D000F6E708AF089113E058F8040BC4F302515E
:1039E0004FF00A0B032900D180B2042900D1C0B2E4
:1039F0000021EEE75946FCF7C3FC303107F8011D02
:103A00000028F7D1ADEB070000F1200B600702D5CD
:103A100024F4803401E04FF0010ADA4502DDAAEB1C
:103A20000B0000E00020824600EB0B0108980144E7
:103A3000A9EB01000A90E00306D4DDE90D2321463D
:103A40000A9800F04DF806444FF0000908E009A973
:103A500011F80900DDE90D12904709F10109761C02
:103A600008998945F3DBE0030CD5DDE90D232146F8
:103A70000A9800F035F8064404E0DDE90D12302024
:103A80009047761CBAF10001AAF1010AF5DC05E0C5
:103A9000DDE90D1217F8010B9047761CBBF1000110
:103AA000ABF1010BF4DC0A982146DDE90D2300F0AF
:103AB00005F806446D1C97E6092801002DE9F04140
:103AC000044600251E461746880404D405E03946FE
:103AD0002020B0476D1C641EF9D52846BDE8F08152
:103AE0002DE9F041044600251E469046C80301D545
:103AF000302700E02027880404D505E041463846F9
:103B0000B0476D1C641EF9D52846BDE8F0810A68EF
:103B1000531C0B601070704710B5044600212046FE
:103B2000FCF71AFC02D284F0004010BD2046FCE7EE
:103B3000FCF78CFFFFF7F4F9FEF728FCFEF78EFC8C
:103B4000FEF7C4FCFEF716FDFEF754FDFEF792FDEE
:103B5000FEF7D0FDFEF748FEFEF70EFEFEF728FE4C
:103B6000FEF726FFFFF790FB002008490860084891
:103B7000FDF748FC012207490748FEF79FFB012299
:103B800006490748FEF79AFB00BFFEE70000002049
:103B9000E400002014000020940200201600002001
:103BA0002403002070B506460D46144629463046CB
:103BB000FCF7D2FB01D2284670BD21463046FCF707
:103BC000D5FB01D22046F7E73046F5E702030405AE
:103BD000060708090A0B0C0D0E0F10100102000059
:103BE00000000000000001020304060708090000AD
:103BF0000000010203040000183C0008000000203F
:103C000028000000AC370008403C000828000020D5
:103C100058070000BC37000800000000000000004A
:103C200000000000000096430000964300000000E2
:103C30000000000010000000010000000024F4005B
:0400000508000131BD
:00000001FF
